S02B00002F686F6D652F6B6576696E2F68696572617263686963616C5F726F7574696E672F6573705F65787018
S315800000008140014181410142814201438143014452
S315800000108144014581450146814601478147014822
S31580000020814801498149014A814A014B814B014CF2
S31580000030814C014D814D014E814E014F814FF962B8
S3158000004073A002308542FE0263D8020005459712EE
S31580000050000023A9A2FADDBF97020000938202095D
S315800000607390523073103000530000F0D30000F0CC
S31580000070530100F0D30100F0530200F0D30200F0E8
S31580000080530300F0D30300F0530400F0D30400F0D0
S31580000090530500F0D30500F0530600F0D30600F0B8
S315800000A0530700F0D30700F0530800F0D30800F0A0
S315800000B0530900F0D30900F0530A00F0D30A00F088
S315800000C0530B00F0D30B00F0530C00F0D30C00F070
S315800000D0530D00F0D30D00F0530E00F0D30E00F058
S315800000E0530F00F0D30F00F0970200009382820333
S315800000F07390523097410000938141CE1382718A6A
S31580000100137202FC732540F185456370B5001316A2
S315800001101501329213011500460112916F1050504D
S315800001206D7106E40AE80EEC12F016F41AF81EFC5D
S31580000130A2E0A6E4AAE8AEECB2F0B6F4BAF8BEFC49
S3158000014042E146E54AE94EED52F156F55AF95EFD31
S31580000150E2E1E6E5EAE9EEEDF2F1F6F5FAF9FEFD21
S3158000016073252034F32510340A86EF10703473100B
S315800001701534B72200009B82028073A00230A260F1
S315800001804261E2610272A2724273E2730664A664FD
S315800001904665E6650676A6764677E6770A68AA68AD
S315800001A04A69EA690A7AAA7A4A7BEA7B0E6CAE6C5D
S315800001B04E6DEE6D0E7EAE7E4E7FEE7F516173008C
S307800001C0203067
S315800001C200000000000000000000000000000000A7
S315800001D20000000000000000000000000000000097
S315800001E20000000000000000000000000000000087
S315800001F20000000000000000000000000000000077
S3158000104841111B05051006E489472105638AF506C3
S3158000105863D6B7020D476381E5049147639EF5041D
S3158000106897270000938707579C637A073E956361A5
S31580001078A70A17270000233FA754A9A88547639D79
S31580001088F502938781819C63254772073E9563693C
S31580001098A70623BCA1803DA89727000093870754FD
S315800010A89C632D4772073E95637FA702172500002C
S315800010B8130545E5EF00B0460145A26041018280EF
S315800010C8938701819C63154776073E956362A702DD
S315800010D823B8A180A26013858710137505F0233C79
S315800010E8F5FE41018280172700002339A74EDDB718
S315800010F817250000130585DEEF007042014575BF90
S3158000110817250000130505DBEF007041014575B70B
S3158000111817250000130585E1EF007040014571BF72
S3158000112839714EEC5AE0B2892E8B014693054002FE
S3158000113822F826F44AF052E856E406FC2A84B68A4F
S315800011483A8A3E89C284EF10E023014693058002DD
S315800011582285EF102023631E0B0063910A0AE27032
S315800011684274A2740279E269426AA26A026B2161B8
S315800011788280930540022285EF10601F1B060500BA
S3158000118813668600930540022285EF10A01F9305FB
S3158000119880032285EF10A01DFD391B06050093F9F3
S315800011A8F90333E6C900930580032285EF10801D75
S315800011B8930580032285EF10801B9B17690093F7A0
S315800011C807041B0605005D8E930580032285EF10B4
S315800011D8601B930580032285EF1060199B87E4FFC7
S315800011E89B9777001B06050093F707785D8E930516
S315800011F880032285EF100019E3830AF693054002DF
S315800012082285EF10C0161B0605009305400222852D
S3158000121813664600EF10001793054002228563097E
S315800012280A10EF10C0149B09050093050018528513
S31580001238EF10E0131B5645000565130505F01B16D0
S315800012488600698E3366360101262285930540021B
S31580001258EF104013930540022285EF1040119B0939
S315800012680500930500185285EF1060101B15450080
S315800012781375F50F33663501930540022285EF1005
S315800012886010930580022285EF10600E9B09050089
S315800012989305401A5285EF10800D137685033366C1
S315800012A83601228593058002EF10C00D93058002D2
S315800012B82285EF10C00B9B0905009305401A5285BD
S315800012C8EF10E00A137675003366360193058002BF
S315800012D82285EF10200B930580032285EF102009C5
S315800012E81B1969001B060500137909043366C900B2
S315800012F8228593058003EF10E008930580032285F5
S31580001308F934EF10C0069B9474001B06050093F40D
S31580001318047822854274E2700279E269426AA26A96
S31580001328026B458EA2749305800321616F10800538
S31580001338EF10E0031B060500930540022285EF1097
S315800013486004930540022285EF1060021B060500A3
S31580001358930540022285EF10E002930580022285DC
S31580001368EF10E0001B060500930580022285EF102A
S315800013786001930580022285EF00707F1B060500B9
S31580001388930580022285EF00F07FB1B76D7122E266
S31580001398A6FD000AD2F1D6EDDAE906E6CAF9CEF557
S315800013A8DEE5E2E166FD6AF96EF5BD478217233010
S315800013B8E4F2950705470A17233CF4F22A8BC147BE
S315800013C8AE84172500001305E5B8C545B68A2338C7
S315800013D8E4F22320F4F42334C4F0EF00501413010C
S315800013E801BC0A8AB726016013070A01B70701609C
S315800013F8938606201CE39387072013070704E39B3D
S31580001408D7FE3B8C640317250000130525B7EF002C
S3158000141810111B1C3C006351802B13058008EF00BC
S31580001428104FAA8B6308054A972700009387078C75
S3158000143803B3070083B8870003B80701886F8C73E6
S315800014489077947B987FBC43233464F4233814F5CF
S31580001458233C04F52330A4F62334B4F62338C4F6A3
S31580001468233CD4F62330E4F82324F4F8130984F4CF
S31580001478DE89DE8D014DC54C8325090062851109FB
S31580001488EFF01FBC23B0AD006305051A052DA10D2D
S31580001498E3149DFF13058008EF0070472338A4F0F6
S315800014A863020546B7081000FD18E298033C04F16C
S315800014B893DD484193973D002334F4F26289014DC8
S315800014C8B70C1000033584F2EF0070442330AC006B
S315800014D86301051A03B70900814718E185276697CE
S315800014E82105E3CCB7FF052DC547210CA109E31BD0
S315800014F8FDFCE1455285EF009067B1570125233CF5
S31580001508F4F063050514AD57233CF4F06360B51514
S3158000151803B30B00635E60031B8804001B05F8FF9A
S3158000152802150191814501460505635E90009B87FA
S315800015380500139737001A97B306F5001CE385074D
S315800015482107E39DF6FE0526BB05B800E31FCBFC05
S315800015589B871A00BE8517250000130525B42334FA
S31580001568F4F2EF00C07B63C40A169B870400233C11
S31580001578F4F09B070B002330F4F0930744F33E8D79
S31580001588814C014C9DA8EFF0BFB9833704F18E0CCE
S315800015984E85BE9C03A60C00B145052CEF00905ED7
S315800015A86E864E85C145EF00F05D4E855146D14524
S315800015B8EF00505D4E8501469305C002EF00905CB2
S315800015C84E85930500030146EF00D05B033684F110
S315800015D84E8593050005EF00F05A033604F093050F
S315800015E840054E85EF00105A833784F26301FC0E5E
S315800015F893074D00832C0D003E8D033604F2939994
S315800016086C00D2994E8593050002EF00B0571148B9
S315800016188147528785464E8501468145E3150CF6F6
S31580001628833784F00147814656868545EFF05FAF5C
S31580001638A9BFEA85172500001305459BEF00206E94
S315800016485E85EF00B02ED157233CF4F0033584F144
S31580001658130104EFB2601264EE744E79AE790E7A95
S31580001668EE6A4E6BAE6B0E6CEA7C4A7DAA7D516142
S315800016788280EA85172500001305C59EEF00206A3B
S3158000168863010D02833704F19B04FDFF8214F58004
S31580001698A107BE94033509002109EF003029E39B91
S315800016A824FF033504F1EF0070285E85EF001028CB
S315800016B8C957233CF4F059BFE28517250000130566
S315800016C8658EEF00C065D957233CF4F041B7833760
S315800016D804F263850722172500001305259FEF006E
S315800016E80064F32900B063C40A02930C04F3139CC4
S315800016F82A00669C014521A003A54C00910C1A0579
S31580001708054681455295EF00F047E3179CFF014C4B
S31580001718894C21A803A507FA052C1A0552959145E7
S31580001728EF00F0440125B37C950193172C0013072D
S3158000173804F9BA97E3D08AFF63980C0063C60A0057
S315800017485285894C054CE1BFF32700B0B3873741F2
S31580001758233CF4F063C40A02930C04F3139C2A0016
S31580001768669C014521A003A54C00910C1A050146EB
S3158000177881455295EF001041E3978CFF833584F2BB
S315800017881725000013058596EF0060596358501594
S315800017989B87FAFF82178193130704F38A07BA9700
S315800017A8233CF4EE9B8704002330E4F0914A2334EB
S315800017B804F02334F4F2172A0000130AAA9C5686EA
S315800017C8D685172500001305E5948E0AEF00205567
S315800017D8DE9A83B70A000147A6865A86BE851725EC
S315800017E800001305A5952330F4F2EF0040536355A6
S315800017F86009814A014D814D635E9002833704F208
S315800018081B8C0A00131E3C00B38CC701814983BE1A
S315800018180C004E866287E28685297688F687EE856D
S3158000182852856305DC01EF00804F052DA10C050C60
S31580001838E39F34FD833784F2852DBB8A5701E31DE8
S31580001848BBFB833784F0BB07FD002334F4F06305C4
S315800018580D02EA851725000013054598EF00204CF0
S31580001868033784EF833704F0630FF70083AA870072
S3158000187891072330F4F0A1B7172500001305859446
S31580001888EF00E049F1BF833484F017250000130583
S315800018986597A685EF00A048A9C801468145172502
S315800018A800001305259CEF008047833704F1938455
S315800018B887088337090021093E8599C3EF001007F9
S315800018C8E39924FF033504F1EF0050065E85EF00A7
S315800018D8F005ADBBD557233CF4F08DBB8145172564
S315800018E8000013052592EF008043014681451725A0
S315800018F800001305A594EF00804245BF0145EF001F
S31580001908300DD1BB171500001305C571EF002041B6
S315800019185E85EF00B001CD57233CF4F005BB0D7111
S31580001928A2EAA6E6CAE252FA5AF25EEE86EE4EFEC1
S3158000193856F662EA66E66AE22A89AE843284B68B0D
S31580001948130A5002171B0000130B8B3E29A031C1C6
S31580001958A6850504029903450400E31A45FF8346D4
S315800019681400930A14005687130C0002FD59FD5C77
S31580001978014513065005A5459B87D6FD93F7F70FB6
S31580001988130417006365F61C8A07DA979C43DA976F
S315800019988287F6605664B6641669F279527AB27AA4
S315800019A8127BF26B526CB26C126D35618280368C0A
S315800019B8834617002287C9B72147854793868B00B8
S315800019C863C9A7146317051483E70B00B68BB3F9AD
S315800019D8E702012C5400854A4EC063F4E7007DAACD
S315800019E8EA8AB3D7E70291061B8D1A00B3F9E70294
S315800019F823AE36FFE3F6E7FE63599D01812CFD3C55
S31580001A08A68562850299E34C9DFF139C2A00B30A3A
S31580001A188101338C8A41A54C21A083A9CAFFF11A7A
S31580001A281305700563E43C0113050003A6853B0591
S31580001A3835010299E3135CFF39BF93C7FCFFFD9715
S31580001A48B3FCFC0083461700812C228735B74147B3
S31580001A58ADB79B8906FD8346170022879B8706FDBF
S31580001A681B88060063E5F50205079B9729008346D0
S31580001A780700BB8937019B991900BB8909019B8798
S31580001A8806FD9B8909FD1B880600E3FFF5FCE3D567
S31580001A980CEECE8CFD59CDB503A50B00A685A10B02
S31580001AA8029955BD83BA0B00A10B638B0A1063514B
S31580001AB8900F9307D0026316FC0A03C50A0005C176
S31580001AC87D5C63C50900FD3963898901A685850A18
S31580001AD8029903C50A00FD3C6DF5E35E90E7FD3C7F
S31580001AE8A685130500020299E39B0CFEADB529472E
S31580001AF8E9B58346170005252287BDBD1305000372
S31580001B08A6850299A68513058007029993868B0078
S31580001B18414783B70B00B68B5DBD8547938A8B009B
S31580001B2863C3A70051C183B90B0063C20908CE8776
S31580001B38D68B294769BDA68513055002029921BD12
S31580001B4883A90B0083461700A10B228789B7A68530
S31580001B581305500202995684FDBB972A0000938A82
S31580001B68EA83638D090683C70A00ADCB93871A007B
S31580001B7833863A0129A0850703C7F7FF25CBBE869A
S31580001B88E31BF6FEBB065641BB8CDC4063489005DA
S31580001B9803C50A00E30105DC7D5C25B78547814AD4
S31580001BA8054DE3CD97E595B583A90B00BDBFA68501
S31580001BB81305D0020299D68BB3073041294701BD58
S31580001BC8635690019307D002E319FCF8971A000030
S31580001BD8938ACA7C130580027D5CE5B5012CFD3CA1
S31580001BE8A68562850299E39C0CFE5DB7BB86564145
S31580001BF861BF9C612380A7009C6185079CE18280E8
S31580001C08411122E0832502049307020006E4AE9779
S31580001C181B8715002380A7002320E204A947630BAE
S31580001C28F5009307F0036307F700A2600264014595
S31580001C3841018280930702003E9713050200230024
S31580001C480700EF00101823200204A26002640145F1
S31580001C5841018280F32700B0172700001307079BEE
S31580001C6809E91463171600001306C67323B4C184E2
S31580001C78958F9726000023BBF698F32720B009E9AD
S31580001C881867971600009386667223B8D184998F51
S31580001C9823B0F18482809317150093E7170017F70E
S31580001CA8FFFF233DF73401A08567938737A717F78A
S31580001CB8FFFF2335F73401A0411106E4EFF0BFFD9D
S31580001CC89307D01017F7FFFF233AF73201A06F006A
S31580001CD8500F11C101A0828079712A8606F42800E6
S31580001CE893067101254811A0BE869377F600930561
S31580001CF8000313F7F70F6374F80093057005BB07A5
S31580001D08B7002380F60011829387F6FFE31ED5FC81
S31580001D18230C0100EF00F00AA270456182801D71D4
S31580001D28130381022EF432F836FC2A869A86170522
S31580001D380000130525ED814506ECBAE0BEE4C2E84D
S31580001D48C6EC1AE4EFF0BFBDE260014525618280EA
S31580001D581D711303010322F02AE432F836FC2A8423
S31580001D682E8617050000130505E92C009A8606F4C9
S31580001D78BEE4BAE0C2E8C6EC1AECEFF05FBAA26736
S31580001D88238007002265A270019D027425618280E6
S31580001D98B3E7C500C98F9D8BB306C50091CF2E9634
S31580001DA8AA876377D502850503C7F5FF8507A38FBD
S31580001DB8E7FEE31AB6FE8280E37FD5FEAA87A105F1
S31580001DC803B785FFA10723BCE7FEE3EAD7FE828037
S31580001DD88280B367C5009D8B2A9693F5F50F91CBC4
S31580001DE8AA87637AC5028507A38FB7FEE31DF6FE29
S31580001DF88280139785004D8F931507014D8F931712
S31580001E0807025D8FE376C5FEAA87A10723BCE7FE96
S31580001E18E3EDC7FE82808280717122F126ED9304FC
S31580001E280200130402003384844022864EE552E180
S31580001E38AA892E8A12859385818606F54AE9D6FC73
S31580001E48928AEFF0FFF413064204058E81453385A6
S31580001E588A00EFF01FF84E85D285EFF09FE781451F
S31580001E680145EF00705B171400001304247A146090
S31580001E781309F103137909FCAA8995E6146481E6A6
S31580001E884E85EFF05FE1CA84106C268597150000B1
S31580001E9893854554EFF0DFEBAA94E30399FE4A85D0
S31580001EA8EF002072F1BF1068971500009385855260
S31580001EB84A85EFF0FFE91464B304A900F9DEE9B7AF
S31580001EC88347050089CBAA87850703C707006DFF67
S31580001ED83385A74082800145828091CD834705005E
S31580001EE88DC3B306B500AA8721A003C7070011C70B
S31580001EF88507E39CD7FE2E858280B385A7402E85ED
S31580001F0882808145CDBF05058347F5FF850503C7D3
S31580001F18F5FF99C7E389E7FE1B850700199D82802F
S31580001F280145EDBFAA87850503C7F5FF8507A38FFA
S31580001F38E7FE75FB828083470500130700026397D7
S31580001F48E700050583470500E38DE7FE1B8757FDF8
S31580001F581377D70F15C783460500AA87014685CE0E
S31580001F68014585079B8506FD1317250083C607004F
S31580001F783A9506052E95F5F619C23305A040828056
S31580001F8883461500938737FD13B617009307150008
S31580001F98E1FA0145D5B701458280828001114AE080
S31580001FA8171900001309096603260900986106ECCB
S31580001FB893170602E983BA979C4F22E826E499E7A5
S31580001FC8E2604264A2640269056182809304C70163
S31580001FD82E84171500001305E540A685EFF03FD43B
S31580001FE81C60171700000367E7611A07BA978C4BBE
S31580001FF81715000013050541EFF07FD21C601717EF
S315800020080000036727601A07BA97CC4717150000A0
S315800020181305C540EFF0BFD08327090008604264E6
S3158000202885271397070269833A95E2600269A68530
S31580002038A2641CC5232C0500171700002324F75C0F
S31580002048710505616FF01FEE011126E4046522E82B
S315800020584AE080612A89971500009385A53D2685E3
S3158000206806ECEFF05FEA01E9033509019305C4013F
S31580002078EFF07FE91DC5971500009385A53C268559
S31580002088EFF07FE80DCD971500009385253C2685D2
S31580002098EFF07FE721C9E2604264A26402690561C4
S315800020A88280171600000366E6551A06329485471D
S315800020B81CCCE2604264A26402690561828083372F
S315800020C80900171600000366E6531A06229642642C
S315800020D883350901E260A264026988634106056165
S315800020E86F00501C171600000366C6511A064A85EB
S315800020F881453294EF00102948C4E2604264A264A4
S31580002108026905618280732540F101258280938664
S3158000211801829C621B070502138687001385870246
S315800021280199329798E2233CF5FE82808280138754
S3158000213801821C631D71A2E82A841385870286ECB6
S31580002148A6E4CAE04EFC52F805680199930888B25D
S31580002158233CF5FEAE89C69732899714000093848E
S31580002168644A130608B0814508E0368A1CE323A032
S315800021780400EFF01FC60860D2852320350123228C
S31580002188250123240500232C05007105EFF09FD92E
S3158000219893878182886397070000938747E03EE4A8
S315800021A897070000938787EA3EE82C009707000088
S315800021B8938707DF22F402F03EECEF00007BE660AF
S315800021C8466488400669A664E279427A25618280F7
S315800021D8797106F422F026EC02E002E4F32440F159
S315800021E88547630CF51063D3A7028947630CF512FC
S315800021F88D47631CF50E171500001305A52CEFF007
S315800022081FB2A2700274E2644561828079ED171567
S3158000221800001305A524EFF09FB09716000093865B
S315800022286625130610029305B00E0A85EFF03FF077
S315800022382A84971600009386E624130600029305DF
S31580002248B00E2800EFF0BFEE635FA0029B85040006
S315800022580147A26613166700B2969C6A0F00F00FB4
S31580002268DC4381270F00F00F05079BD7C7011B08A2
S3158000227807006384B70CE34EA8FC17150000130506
S31580002288E526EFF0DFA9E35E80F61B06F4FF02166B
S31580002298019205061A068147894602673E97186B9A
S315800022A80F00F00F14C30F00F00F93870704E3168F
S315800022B8F6FE8146026736971C6B0F00F00FDC43EB
S315800022C881270F00F00F858BE5DB1C6B0F00F00F65
S315800022D823A007000F00F00F93860604E31CD6FCA4
S315800022E8A2700274E26445618280854763DDA70037
S315800022F8A2700274E2644561828017150000130596
S315800023086519EFF0DFA1971600009386A6171306C6
S3158000231800029305B00E2800EFF07FE10144E34701
S31580002328A0F2C5B51715000013054518EFF03F9FB5
S31580002338A2700274E264456182809C6A0F00F00F85
S31580002348094798C30F00F00FA2673E961C6A0F00D4
S31580002358F00FDC4381270F00F00F858BE5DB1C6AC5
S315800023680F00F00F23A007000F00F00F29BF1C698C
S3158000237882158191BE950F00F00F884101250F00C7
S31580002388F00F82801C6982158191BE950F00F00F2F
S3158000239890C10F00F00F82801C690F00F00F23A2F6
S315800023A807020F00F00F1C690F00F00FDC5381271E
S315800023B80F00F00F93E7470018690F00F00F5CD302
S315800023C80F00F00F1C690F00F00FDC531B87070006
S315800023D80F00F00F1B08F6FF93773800D98F18691E
S315800023E80F00F00F5CD30F00F00F5DC6021813586C
S315800023F80802938705051A08C1053E98A1469C617F
S315800024080F00F00FDC5381270F00F00F93E787004A
S3158000241898610F00F00F5CD30F00F00F1C690F0056
S31580002428F00FDC531B8707000F00F00F9C610F002D
S31580002438F00F83A7071881270F00F00F9BD7470057
S31580002448BD8BBB97D700D98F812718690F00F00FEE
S315800024585CD30F00F00F1C690F00F00FDC53812747
S315800024680F00F00F98610F00F00F03270718012758
S315800024780F00F00F1B86C6FF3D8B3B17C700D98F11
S31580002488812718690F00F00F5CD30F00F00F938532
S315800024980504A126E39505F782805DC6C105052654
S315800024A805439B57234018699B8707069B972700F8
S315800024B83E970F00F00F0328070001280F00F00F42
S315800024C898610F00F00F0327071801270F00F00FF8
S315800024D8937633009B9636001B5747009B884600A9
S315800024E8033E05013D8B3B1717013368E8009B883F
S315800024F8060001283387C7010F00F00F2320070144
S315800025080F00F00F18693E970F00F00F1843012748
S315800025180F00F00F94610F00F00F83A6061881262E
S315800025280F00F00F03380501BD8ABB961601558F3B
S315800025380127C2970F00F00F98C30F00F00F0523ED
S3158000254893850504E31FC3F482800CC18280084109
S3158000255801258280B707006003A54710118982800C
S315800025683707006083274710918BEDDF8280A94764
S31580002578370700606300F50283274710918BEDDFEC
S3158000258801252320A7103707006083274710918BE2
S31580002598EDDF828083274710918BEDDFA9472320C3
S315800025A8F7103707006083274710918BEDDFB54713
S315800025B82320F7103707006083274710918BEDDFBC
S315800025C88280411122E006E42A840345050019C564
S315800025D80504EFF0DFF9034504007DF9A260026483
S315800025E841018280011122E826E406EC3707006063
S315800025F8930750142326F710B70700808D272324C6
S31580002608F71093043005171400001304A4F7130574
S31580002618500421A0268583441400EFF05FF5050455
S31580002628F5F8E2604264A26405618280971700002B
S31580002638938747F91377F5003E970347070011817B
S31580002648AA97A380E50083C707002380F5008280C8
S31580002658797122F026EC4EE452E006F44AE82A8A9A
S315800026686144971400009384E4F5E159BB578A00C6
S3158000267893F7F70F13F7F7009183A697269703C565
S315800026880700034907006134EFF07FEE4A85EFF0D3
S315800026981FEEE31D34FDA2700274E2644269A269EA
S315800026A8026A45618280797122F026EC4EE452E016
S315800026B806F44AE82A8A1304800397140000938450
S315800026C864F0E159B3578A0093F7F70F13F7F700C9
S315800026D89183A697269703C50700034907006134A7
S315800026E8EFF0FFE84A85EFF09FE8E31D34FDA2701E
S315800026F80274E2644269A269026A456182806FF067
S315800027089FFA4111971700009387C7EB1377F50057
S31580002718118106E422E03E97AA9703C50700034481
S315800027280700EFF0DFE422850264A26041016FF0C2
S315800027381FE485473171821722F926F58907B70480
S31580002748FF00370401FF4AF14EED52E956E55AE19A
S31580002758DEFCE2F8E6F4EAF006FDEEECB2892A8CB5
S31580002768AE8A368932EC3EF432F8014D9384F40F02
S31580002778130404F0894C0D4A971B0000938B8BE257
S31580002788171B0000130B0BE383270C001BD787004E
S315800027989B978700E18F658F5D8F9B1707011B5776
S315800027A80701D98F8127638C970763F9FC006387B4
S315800027B8470B11476398E708110CF9B705476393E8
S315800027C8E708631B0D00638909008337090189C7F8
S315800027D8833509024E8582978337090013054C0095
S315800027E82AF091C783350902280882970275EFF087
S315800027F82FED71992105CA863008D6856295EFF046
S315800028085FF3833789012A8D81CB833509022808AE
S315800028188297FD576307F5126A8C054DB5B763072E
S315800028280D10110CEA704A746285AA740A79EA69ED
S315800028384A6AAA6A0A6BE67B467CA67C067DE66DB2
S3158000284829618280E3100DFEE38E09FC8337090136
S31580002858F1DB833509024E858297E9B703278C0019
S3158000286803264C009305CC009B1787001B578700CF
S31580002878658FE18F9B168600D98F1B5686001B971E
S315800028880701E18E658E9BD70701D18E5D8F9B9D53
S31580002898060102179BD606010193B3E6DD0056971B
S315800028A89B8D06003AFCEEC4AEE0638E09043A8539
S315800028B8DE853AE4EFF02FE522670DE18326CC002A
S315800028C89B9786009BD68600E58EE18FD58F9B9653
S315800028D807019BD70701D58F23A8F900DA853A85A2
S315800028E8EFF06FE20DE10327CC009B1787001B579B
S315800028F88700658FE18FD98F1B9707019BD70701C3
S31580002908D98F23AAF9008D2D9BD7FD419BD7E70147
S31580002918BB87B7019BD727400337890083350902D0
S315800029288D278A0708183E9C0297B9BDE38B09EE66
S3158000293883370901E38707EE833509024E85829737
S31580002948CDB56302AC03E28737070004910723AE4F
S31580002958E7FEE31DFDFEB3078D41F117F19B910755
S315800029683E9C054D15B5054D05B518413706FF0042
S31580002978370801FF9B5787001306F60F1B1787003A
S31580002988130808F033770701F18FD98F1B97070152
S315800029989BD70701D98F37070ED081271307D7EE24
S315800029A86394E702184DC5469B1787001B57870017
S315800029B8718FB3F70701D98F1B9707019BD707013B
S315800029C8D98F812763F3F60082805C45832885004A
S315800029D8AE861B9787009BD587009B9788009BD8D8
S315800029E8880033770701F18D33F8070133F6C8007D
S315800029F8B367B7003366C8009B9507011B170601A6
S31580002A089BD707011B560601598ECD8F13170602D1
S31580002A189395070281910193AA9501463A956FF09D
S31580002A285FD11841370601FFB706FF009B1787005D
S31580002A38130606F01B5787009386F60F758FF18F5E
S31580002A48D98F1B9707019BD70701D98F37070ED0D8
S31580002A5881271307D7EE6394E7040C4D4548014751
S31580002A689B9785009BD58500F58DF18FCD8F9B959E
S31580002A7807019BD70701CD8F81276360F8025C41E8
S31580002A881B9787009BD78700798EFD8ED18E1B97E3
S31580002A9806019BD60601558F01273A858280014714
S31580002AA83A8582801C49233006006353F0061B83CF
S31580002AB8F7FF9318030293D8080285088A08B70E89
S31580002AC801FF370EFF00AE982E888147938E0EF051
S31580002AD8130EFE0F11080327C8FF939607029B174C
S31580002AE887001B5787003377C701B3F7D701D98F7C
S31580002AF81B9707019BD70701D98F82178193B697B2
S31580002B08E31A18FD05030A03338565001CE28280F3
S31580002B182E8582805C49233006006353F0061B832A
S31580002B28F7FF9318030293D8080285088A08B70E18
S31580002B3801FF370EFF00AE982E888147938E0EF0E0
S31580002B48130EFE0F11080327C8FF939607029B17DB
S31580002B5887001B5787003377C701B3F7D701D98F0B
S31580002B681B9707019BD70701D98F82178193B69741
S31580002B78E31A18FD05030A03338565001CE2828083
S31580002B882E8582801C698215F981AE979843370510
S31580002B9801FF130505F09B178700E98F3705FF00AE
S31580002BA81305F50F1B578700698FD98F1B9507016A
S31580002BB89BD707015D8D01258280797122F01C4D96
S31580002BC800694EE406F426EC4AE8B309F400635C2F
S31580002BD8F0022E89814419A82285EFF06FAE05058B
S31580002BE82A94B38789408524635FF000CA85228545
S31580002BF8EFF06FB175F1A270027426854269E264BE
S31580002C08A26945618280A2700274FD542685426954
S30D80002C18E264A2694561828035
S31580002C20411111478146130600209305F00F1705C1
S31580002C3000001305256606E422E0EFF0CF8E0147FB
S31580002C4091460146930500201305F00FEFE08FF4BF
S31580002C502A841705000013056569EFF0CF8C81453E
S31580002C60170500001305856BEFF0EF8B9305F00FCA
S31580002C70170500001305056CEFF0EF8AA28517058E
S31580002C8000001305A56CEFF00F8A170500001305E9
S31580002C90656CEFF04F89171600001306A6909145D4
S31580002CA0170500001305856CEFF0EF87930500206C
S31580002CB0170500001305056CEFF0EF861705000079
S31580002CC01305456CEFF02F86A26002640145410131
S31580002CD082804111170500001305C56E06E4EFF0EA
S30F80002CE0DF8EA2607D5541018280DF
S30B80002CEA0000000000005E
S31580002CF00100000001000000010000000200000049
S31580002D000200000002000000030000000300000033
S31580002D10030000000400000004000000040000001E
S31580002D20040000000400000003000000030000000F
S31580002D300300000084ECFFFF22EEFFFF0AEEFFFF98
S31580002D4022EEFFFF22EEFFFF22EEFFFF22EEFFFFC5
S31580002D5014EEFFFF22EEFFFF22EEFFFF82ECFFFF65
S31580002D600EEDFFFF22EEFFFF82ECFFFF26EDFFFF59
S31580002D7026EDFFFF26EDFFFF26EDFFFF26EDFFFF89
S31580002D8026EDFFFF26EDFFFF26EDFFFF26EDFFFF79
S31580002D9022EEFFFF22EEFFFF22EEFFFF22EEFFFF75
S31580002DA022EEFFFF22EEFFFF22EEFFFF22EEFFFF65
S31580002DB022EEFFFF22EEFFFF22EEFFFF22EEFFFF55
S31580002DC022EEFFFF22EEFFFF22EEFFFF22EEFFFF45
S31580002DD022EEFFFF22EEFFFF22EEFFFF22EEFFFF35
S31580002DE022EEFFFF22EEFFFF22EEFFFF22EEFFFF25
S31580002DF022EEFFFF22EEFFFF22EEFFFF22EEFFFF15
S31580002E0022EEFFFF22EEFFFF22EEFFFF22EEFFFF04
S31580002E1022EEFFFF22EEFFFF22EEFFFF22EEFFFFF4
S31580002E2022EEFFFF22EEFFFF22EEFFFF22EEFFFFE4
S31580002E3022EEFFFF6CEDFFFFEEEDFFFF22EEFFFFC0
S31580002E4022EEFFFF22EEFFFF22EEFFFF22EEFFFFC4
S31580002E5022EEFFFF22EEFFFFC6EDFFFF22EEFFFF11
S31580002E6022EEFFFF8CECFFFFD0EDFFFF22EEFFFF8F
S31580002E7022EEFFFF78EDFFFF22EEFFFFC2EDFFFFA0
S31580002E8022EEFFFF22EEFFFF22EDFFFF0000000093
S31580002E9030350080000000004835008000000000CA
S31580002EA06035008000000000703500800000000062
S30D80002EB0000000000000000094
S31580002EB84572726F723A204F7574206F66206D6501
S31580002EC86D6F727920696E2062616E6B2031210A7E
S31580002ED800000000000000004572726F723A204FB1
S31580002EE87574206F66206D656D6F727920696E20A6
S31580002EF862616E6B2032210A00000000000000002B
S31580002F084572726F723A204F7574206F66206D65B0
S31580002F186D6F727920696E2062616E6B2033210A2B
S31580002F2800000000000000004572726F723A204F60
S31580002F387574206F66206D656D6F727920696E2055
S31580002F4862616E6B2034210A0000000000000000D8
S31580002F5853657474696E672075702025642064656E
S31580002F687669636520737472756374757265732E7A
S31580002F782E2E0A000000000044657669636520737A
S31580002F887472756374757265207365747570206361
S31580002F986F6D706C6574652E0A0000000000000075
S31580002FA84572726F723A20496E76616C69642062E6
S31580002FB875666665722073697A652063616C637568
S31580002FC86C6174696F6E202873697A653D256429FA
S31580002FD82E20436865636B2042415443482F544FE3
S31580002FE84B454E532E0A00004572726F723A204640
S31580002FF861696C656420746F20616C6C6F63617441
S315800030086520646174612062756666657220666F84
S315800030187220646576696365202564210A0000004C
S315800030284572726F723A204661696C656420746F66
S3158000303820616C6C6F63617465206D656D6F7279E4
S3158000304820666F722070616765207461626C652086
S31580003058706F696E746572206172726179210A0077
S315800030684572726F723A204661696C656420746F26
S3158000307820616C6C6F63617465207061676520740C
S3158000308861626C6520666F72206465766963652007
S3158000309825640A0000000000436F6E6669677572D2
S315800030A8696E6720256420706172746963697061CE
S315800030B874696E6720646576696365732E2E2E0A39
S315800030C800000000000000005374617274696E6726
S315800030D820616363656C657261746F72732E2E2EC0
S315800030E80A000000000000005374617274696E67FC
S315800030F82076616C69646174696F6E20666F722070
S31580003108256420646576696365732E2E2E0A000011
S31580003118202056616C69646174696E67206465767F
S315800031286963652025642028485720496E64657838
S31580003138202564290A00000056616C6964617469F7
S315800031486E67206275666665722040203078256CC9
S3158000315878202842617463683A2025642C20546F4D
S315800031686B656E733A2025642C204F66667365748A
S315800031783A202564292E2E2E0A0000000000000021
S3158000318820204552524F52205B25642C2025645DB1
S315800031983A204578706563746564203078256C6C50
S315800031A8782028256C6C75292C20476F74203078F8
S315800031B8256C6C782028256C6C75290A000000001F
S315800031C8202056616C69646174696F6E2050415322
S315800031D85345440A00000000202056616C696461EA
S315800031E874696F6E204641494C45442077697468F6
S315800031F8202564206572726F72730A0000000000D1
S3158000320856616C69646174696F6E20636F6D706CEA
S315800032186574652E20546F74616C204572726F7266
S315800032287320666F7220746869732072756E3A208F
S3158000323825640A0000000000536F757263652025B7
S31580003248642028485720496E64657820256429209B
S315800032587472616E736665723A20504153530A00E0
S31580003268536F757263652025642028485720496EF8
S3158000327864657820256429207472616E7366657228
S315800032883A204641494C0A000A3D3D3D3D3D3D2098
S3158000329852756E6E696E6720746573743A20424102
S315800032A85443483D25642C20544F4B454E533D2569
S315800032B8642C204D434153545F5041434B45543D04
S315800032C825642C204E554D5F4D554C5449434153EA
S315800032D8543D2564203D3D3D3D3D3D0A00000000AE
S315800032E80A2D2D2D205465737420526573756C7460
S315800032F8732053756D6D61727920284379636C6587
S3158000330820436F756E747329202D2D2D0A000000B9
S315800033184D434153545F5041434B4554203D2025EE
S31580003328643A0A00000000002020424154434820A5
S315800033383D20252D33643A205B0000000000000004
S31580003348256C6C64000000005D20284E554D5F4D4D
S31580003358554C544943415354203D207B000000007E
S3158000336825642573000000007D2C20544F4B454E64
S31580003378533D2564290A00000A2D2D2D2054657396
S31580003388742053756974652046696E6973686564C7
S31580003398202D2D2D0A000000286E756C6C290000E2
S315800033A86D6379636C6500006D696E73747265749C
S315800033B80000000000000000496D706C656D656E48
S315800033C874206D61696E28292C20666F6F210A002A
S315800033D82573203D2025640A0000000000000000B7
S315800033E85B70726F62655D2025732E256420726519
S315800033F867697374657265640A00000000000000DE
S315800034080909416464726573732020203A203078F4
S31580003418253038780A0000000909496E7465727289
S31580003428757074203A2025640A00000000000000A8
S31580003438636F6D70617469626C65000000000000DE
S315800034487265670000000000696E74657272757037
S315800034587473000000000000092D3E204E6F6E2D0B
S31580003468636F686572656E7420444D410A0000007A
S31580003478736C642C6C6C635F6361636865000000C1
S31580003488736C642C6C325F6361636865000000004E
S31580003498092D3E204C4C432D636F686572656E74AA
S315800034A820444D410A000000092D3E20436F68657F
S315800034B872656E7420444D410A00000000000000C9
S315800034C8092D3E2046756C6C792D636F686572652B
S315800034D86E74206361636865206163636573730ACC
S315800034E80000000000000000092D3E205761726E22
S315800034F8696E673A206E6F204C3220636163686517
S31580003508206D6174636865732068617274202564B0
S315800035183B20736B697070696E67204C3220666CCD
S315800035287573680A000000006E6F6E2D636F68659C
S3158000353872656E7420444D41000000000000000052
S315800035484C4C432D636F686572656E7420444D419B
S315800035580000000000000000636F686572656E7485
S315800035682D444D410000000066756C6C792D636FA3
S31580003578686572656E7420616363657373000000A5
S315800035884553502D417269616E6520626F6F742054
S315800035986C6F616465720A0A000000000000000012
S315800035A823616464726573732D63656C6C73000044
S315800035B82373697A652D63656C6C7300000000005F
S315800035C830313233343536373839414243444546CB
S315800035D8000000B000000000000000A0000000000D
S315800035E80000009000000000000000880000000035
S315800035F8000010A000000000000401000000000088
S705800000007A
