S02B00002F686F6D652F6B6576696E2F6E6F765F7375626D697373696F6E2F6573702F736F63732F6573705F4F
S315800000008140014181410142814201438143014452
S315800000108144014581450146814601478147014822
S31580000020814801498149014A814A014B814B014CF2
S31580000030814C014D814D014E814E014F814FF962B8
S3158000004073A002308542FE0263D8020005459712EE
S31580000050000023A9A2FADDBF97020000938202095D
S315800000607390523073103000530000F0D30000F0CC
S31580000070530100F0D30100F0530200F0D30200F0E8
S31580000080530300F0D30300F0530400F0D30400F0D0
S31580000090530500F0D30500F0530600F0D30600F0B8
S315800000A0530700F0D30700F0530800F0D30800F0A0
S315800000B0530900F0D30900F0530A00F0D30A00F088
S315800000C0530B00F0D30B00F0530C00F0D30C00F070
S315800000D0530D00F0D30D00F0530E00F0D30E00F058
S315800000E0530F00F0D30F00F0970200009382820333
S315800000F07390523097410000938141CF138271896A
S31580000100137202FC732540F185456370B5001316A2
S315800001101501329213011500460112916F1030615C
S315800001206D7106E40AE80EEC12F016F41AF81EFC5D
S31580000130A2E0A6E4AAE8AEECB2F0B6F4BAF8BEFC49
S3158000014042E146E54AE94EED52F156F55AF95EFD31
S31580000150E2E1E6E5EAE9EEEDF2F1F6F5FAF9FEFD21
S3158000016073252034F32510340A86EF10504573101A
S315800001701534B72200009B82028073A00230A260F1
S315800001804261E2610272A2724273E2730664A664FD
S315800001904665E6650676A6764677E6770A68AA68AD
S315800001A04A69EA690A7AAA7A4A7BEA7B0E6CAE6C5D
S315800001B04E6DEE6D0E7EAE7E4E7FEE7F516173008C
S307800001C0203067
S315800001C200000000000000000000000000000000A7
S315800001D20000000000000000000000000000000097
S315800001E20000000000000000000000000000000087
S315800001F20000000000000000000000000000000077
S315800010485971A2F05AF862F066EC2E8B2A8CB28C13
S3158000105836843687B2862E86AA851725000013051C
S3158000106865EA86F4A6ECCAE8CEE4D2E056FC5EF4DD
S315800010786AE86EE4EF00905B635960099B8B0C000D
S315800010883B047403014A014D8149972D0000938DD5
S31580001098EDEBBB0A6403635C90031B040A00131917
S315800010A834006299569481448338090026862287BB
S315800010B8A28685244688C687CE856E856385880000
S315800010C8EF00D056052D21090504E39F9CFC852950
S315800010D83B8A4B01E3113BFD63090D02EA8517251F
S315800010E80000130525ECEF007054A67006746A8517
S315800010F8E6644669A669066AE27A427BA27B027C36
S31580001108E26C426DA26D6561828017250000130529
S31580001118E5E7EF00B051014DC9BF41111B05052018
S3158000112806E489472105638AF50663D6B7020D4723
S315800011386381E5049147639EF504972700009387AA
S31580001148674A9C637A073E956361A70A172700005A
S31580001158233AA748A9A88547639DF5029387818185
S315800011689C63254772073E956369A70623BCA180C1
S315800011783DA897270000938767479C632D4772078A
S315800011883E95637FA70217250000130525E9EF0022
S31580001198F0490145A26041018280938701819C6361
S315800011A8154776073E956362A70223B8A180A26099
S315800011B813858720137505E0233CF5FE410182805F
S315800011C8172700002334A742DDB71725000013052B
S315800011D865E2EF00B045014575BF17250000130588
S315800011E8E5DEEF00B044014575B717250000130505
S315800011F865E5EF00B043014571BF79714EE401465C
S31580001208AE899305400222F026EC4AE806F42A8441
S315800012183689BA84EF1040230146930580022285D9
S31580001228EF108022639B090063190902A270027479
S31580001238E2644269A26945618280930540022285FB
S31580001248EF10A01F1B060500136686009305400253
S315800012582285EF10601FE30B09FC93054002228567
S31580001268EF10A01D1B060500930540022285136614
S315800012784600EF10601D930540022285E9C0EF10F5
S31580001288C01B1B090500930580032685EF10E01A0D
S315800012981B5645000565130505F01B168600698EE5
S315800012A8336626010126930540022285EF10C01970
S315800012B8930540022285EF1040181B090500930507
S315800012C880032685EF1060171B1545001375F50FEB
S315800012D833662501930540022285EF10E0169305B3
S315800012E880022285EF1060151B09050093054004CE
S315800012F82685EF10801413768503336626019305B9
S3158000130880022285EF104014930580022285EF1013
S31580001318C0121B090500930540042685EF10E011CD
S31580001328137675003366260122850274A270E264FC
S315800013384269A2699305800245616F10E010EF103B
S31580001348C00F1B060500930540022285EF10C00FCB
S31580001358930540022285EF10400E1B060500930573
S3158000136840022285EF10400E930580022285EF10F9
S31580001378C00C1B060500930580022285EF10C00C61
S31580001388930580022285EF10400B1B06050069BF76
S31580001398117186FDA2F9A6F50002CAF1D2E9D6E551
S315800013A862F9CEEDDAE15EFD66F56AF16EED8548A5
S315800013B80D489D4713931802021882178E18190331
S315800013C8050895072A8CAE8A2334E4F2A545114789
S315800013D817250000130585C92338C4F0368A2338B3
S315800013E814F5233C04F52320E4F6233064F42334EF
S315800013F8F4F4EF00B023B7170160370701601301D3
S3158000140801DC8A8413880780938507A0138607C022
S31580001418938607E0130E0720130307409308076097
S3158000142823B8F420172500001305C5C698E823B805
S31580001438C40523B8640823B8140D23B8041123B847
S31580001448B41423B8C41823B8D41CEF00301EBB8745
S315800014588A031B9937002330F4F26357204B130510
S315800014688004EF00B05BAA8B6301055897270000BC
S315800014789387C78E8C639067946B986F9C5323343D
S31580001488B4F62338C4F6233CD4F62330E4F8232470
S31580001498F4F8930C84F6AA89AA8D014D254B83A569
S315800014A80C004A85910CEFF05FC723B0AD00630945
S315800014B80512052DA10DE3146DFF13058004EF00B9
S315800014C8F0552338A4F263080552B7081000FD18B2
S315800014D8CA98833C04F393DD484193973D00233CA7
S315800014E8F4F26689014D370B1000033584F3EF005B
S315800014F8F05223B0AC006302054203B70900814766
S3158000150818E185275A972105E3CCB7FF052DA5470E
S31580001518A10CA109E31BFDFCE1452685EF00F071CE
S315800015280125B15941CDAD59636AB50903B30B009D
S315800015386354800D1B880A009B05F8FF82158191EC
S31580001548014601458505635E50019B070600139792
S3158000155837001A97B386F5001CE385072107E39DB4
S31580001568F6FE9B0715003B0606016303FC283E85AD
S31580001578D9BFEE8517250000130545CBEF00100B64
S31580001588639C0D440146814517250000130585CDCA
S31580001598EF00D009833704F39384870483370900DF
S315800015A821093E8599C3EF007049E39924FF0335E5
S315800015B804F3EF00B0485E85EF005048130104F04D
S315800015C8EE704E854E74AE740E79EE694E6AAE6ACA
S315800015D80E6BEA7B4A7CAA7C0A7DEA6D1161828061
S315800015E8EA85172500001305E5B1EF0030045E850E
S315800015F8EF00D044D159D9B79B071A009B9517009D
S3158000160817250000130505BB2334F4F0EF001002FC
S3158000161863480A0C9B870A00233CF4F29B070C005C
S315800016282330F4F2930744F5BE8C014B014DADA8E7
S31580001638EFF0BFBC833704F30E0B4E853E9B032623
S315800016480B00B145EF0050606E864E85C145EF00B0
S31580001658B05F4E855146D145EF00105F4E850146F5
S315800016689305C002EF00505E4E8593050003014640
S31580001678EF00905D033684F34E8593050005EF00F1
S31580001688B05C033604F2930540054E85EF00D05BC7
S31580001698033784F09B071D006382E71A3E8D938784
S315800016A84C0003AB0C00BE8C033684F293196B0096
S315800016B8A6994E8593050002EF0010591148814777
S315800016C8268785464E8501468145E3130DF6833781
S315800016D804F10147814652868545EFF01FB299BFCE
S315800016E8833784F26385073017250000130585AF95
S315800016F8EF00C073F32C00B063410A04930D04F520
S31580001708131B2A00930904F46E9B194D01451A058B
S31580001718269505468145EF00305313156D0005461D
S3158000172881452695EF00505291096308BB0103A5B0
S315800017384D0003AD0900910DD9BF014D094B05A890
S3158000174803A507FC83AD07FB052D1A0526959A0D7B
S315800017589145EF00904E9B09050091453385B4016C
S31580001768EF00B04D0125337B3B01337BAB009317EC
S315800017782D00130704F9BA97E354AAFD631A0B00E0
S3158000178863480A00094B2685930D0018054DC9B78D
S31580001798F32700B0B3899741634A0A26130B04F5E9
S315800017A8931C2A00130D04F4B3876C012334F4F2D6
S315800017B8EA865A8A994D01451A0526950146814534
S315800017C8233CD4F2EF00504813956D0001468145BD
S315800017D82695EF007047833684F3833784F2910623
S315800017E8638E471703254A0083AD0600110AE9B7B9
S315800017F803BE0B031B03F8FF0213814501461353EF
S315800018080302930E8E00635350031B8705008338AB
S3158000181804F2B306E300931737008E064697F297CD
S31580001828F69698E3A1070507E39DF6FE9B07160043
S31580001838BB05B800E302C5DC3E86F1B7930704F41E
S31580001848233CF4F09947BE8C93870418014B2330C8
S31580001858F4F0033684F293996C00A6994E85930525
S315800018680002EF00703E11488147033704F0854631
S315800018784E850146814563000B08EFF01F980337B4
S3158000188804F393973C004E85BA979043B145EF0091
S31580001898B03B6E864E85C145EF00103B4E8551465E
S315800018A8D145EF00703A4E8501469305C002EF0098
S315800018B8B0394E85930500030146EF00F0380336AC
S315800018C884F34E8593050005EF001038033604F23D
S315800018D8930540054E85EF003037833784F11387AB
S315800018E84700233CE4F09B071B00E30BABDF184360
S315800018F83E8BBA8CB9BF833704F10147814652863D
S315800019088545EFF09F8FA5BFCA851715000013057B
S31580001918E57AEF00A051D95955B1EA851725000017
S315800019281305C585EF00805063010D02833704F3E4
S315800019389B04FDFF8214F580A107BE940335090038
S315800019482109EF00B00FE39B24FF033504F3C9593F
S31580001958EF00D00E5E85EF00700E8DB1833584F072
S3158000196817250000130505958144EF00204C814D0D
S315800019782686A685172500001305C5888E04EF00E0
S31580001988E04ADE94886081465686E285EFF04FEB22
S31580001998BB0DB50163066A0183244B00110BC9BFD1
S315800019A8338BAC019944172A0000130AAA85268628
S315800019B8A68552858E04EF006047DE94886085464A
S315800019C85686E285EFF0CFE7BB0DB501E303ABBBE7
S315800019D883244D00110DE1BF01468145172500007E
S315800019E81305C58AEF00804475B6D559C1BE014531
S315800019F8EF00300FD5B91715000013052574EF00D1
S31580001A08E0425E85EF009003CD594DBE833584F064
S31580001A18172500001305058AEF00404181451725E3
S31580001A2800001305A580EF006040A9BE0D71A2EAEB
S31580001A38A6E6CAE252FA5AF25EEE86EE4EFE56F6F0
S31580001A4862EA66E66AE22A89AE843284B68B130A2B
S31580001A585002171B0000130BAB3229A031C1A68593
S31580001A680504029903450400E31A45FF83461400DA
S31580001A78930A14005687130C0002FD59FD5C014534
S31580001A8813065005A5459B87D6FD93F7F70F1304D4
S31580001A9817006365F61C8A07DA979C43DA9782876C
S31580001AA8F6605664B6641669F279527AB27A127B0F
S31580001AB8F26B526CB26C126D35618280368C8346BD
S31580001AC817002287C9B72147854793868B0063C944
S31580001AD8A7146317051483E70B00B68BB3F9E702DF
S31580001AE8012C5400854A4EC063F4E7007DAAEA8A31
S31580001AF8B3D7E70291061B8D1A00B3F9E70223AE26
S31580001B0836FFE3F6E7FE63599D01812CFD3CA685E9
S31580001B1862850299E34C9DFF139C2A00B30A8101D2
S31580001B28338C8A41A54C21A083A9CAFFF11A1305D3
S31580001B38700563E43C0113050003A6853B05350162
S31580001B480299E3135CFF39BF93C7FCFFFD97B3FC8B
S31580001B58FC0083461700812C228735B74147ADB7ED
S31580001B689B8906FD8346170022879B8706FD1B886F
S31580001B78060063E5F50205079B972900834607005B
S31580001B88BB8937019B991900BB8909019B8706FD8B
S31580001B989B8909FD1B880600E3FFF5FCE3D50CEE5F
S31580001BA8CE8CFD59CDB503A50B00A685A10B029950
S31580001BB855BD83BA0B00A10B638B0A106351900F36
S31580001BC89307D0026316FC0A03C50A0005C17D5C2B
S31580001BD863C50900FD3963898901A685850A029945
S31580001BE803C50A00FD3C6DF5E35E90E7FD3CA685DE
S31580001BF8130500020299E39B0CFEADB52947E9B5AA
S31580001C088346170005252287BDBD13050003A685D3
S31580001C180299A68513058007029993868B0041470A
S31580001C2883B70B00B68B5DBD8547938A8B0063C3EC
S31580001C38A70051C183B90B0063C20908CE87D68B2A
S31580001C48294769BDA68513055002029921BD83A936
S31580001C580B0083461700A10B228789B7A685130533
S31580001C68500202995684FDBB971A0000938A0A7817
S31580001C78638D090683C70A00ADCB93871A0033861E
S31580001C883A0129A0850703C7F7FF25CBBE86E31B44
S31580001C98F6FEBB065641BB8CDC406348900503C5FF
S31580001CA80A00E30105DC7D5C25B78547814A054D39
S31580001CB8E3CD97E595B583A90B00BDBFA68513052A
S31580001CC8D0020299D68BB3073041294701BD6356A6
S31580001CD890019307D002E319FCF8971A0000938ABB
S31580001CE8EA70130580027D5CE5B5012CFD3CA6856E
S31580001CF862850299E39C0CFE5DB7BB86564161BF3F
S31580001D089C612380A7009C6185079CE182804111A4
S31580001D1822E0832502049307020006E4AE971B8718
S31580001D2815002380A7002320E204A947630BF5004A
S31580001D389307F0036307F700A26002640145410137
S31580001D488280930702003E9713050200230007004E
S31580001D58EF00F00E23200204A260026401454101CF
S31580001D688280F32700B0172700001307278B09E91D
S31580001D781463171600001306E66723B4C184958F8B
S31580001D889726000023BCF688F32720B009E9186750
S31580001D98971600009386866623B8D184998F23B0D8
S31580001DA8F18482809317150093E7170017F7FFFFD2
S31580001DB82336F72401A08567938737A717F7FFFF90
S31580001DC8233EF72201A0411106E4EFF0BFFD9307F9
S31580001DD8D01017F7FFFF2333F72201A06F003006D4
S31580001DE811C101A0828079712A8606F4280093069B
S31580001DF87101254811A0BE869377F60093050003E6
S31580001E0813F7F70F6374F80093057005BB07B700DF
S31580001E182380F60011829387F6FFE31ED5FC230CF8
S31580001E280100EF00D001A270456182801D71130305
S31580001E3881022EF432F836FC2A869A861705000027
S31580001E48130525ED814506ECBAE0BEE4C2E8C6EC8A
S31580001E581AE4EFF0BFBDE2600145256182801D71FD
S31580001E681303010322F02AE432F836FC2A842E86EC
S31580001E7817050000130505E92C009A8606F4BEE4CA
S31580001E88BAE0C2E8C6EC1AECEFF05FBAA267238024
S31580001E9807002265A270019D027425618280B3E7DE
S31580001EA8C500C98F9D8BB306C50091CF2E96AA878C
S31580001EB86377D502850503C7F5FF8507A38FE7FEF8
S31580001EC8E31AB6FE8280E37FD5FEAA87A10503B70B
S31580001ED885FFA10723BCE7FEE3EAD7FE82808280DE
S31580001EE8B367C5009D8B2A9693F5F50F91CBAA8784
S31580001EF8637AC5028507A38FB7FEE31DF6FE828047
S31580001F08139785004D8F931507014D8F93170702F9
S31580001F185D8FE376C5FEAA87A10723BCE7FEE3EDBE
S31580001F28C7FE82808280717122F126ED93040200B9
S31580001F38130402003384844022864EE552E1AA893E
S31580001F482E8A12859385818506F54AE9D6FC928A7A
S31580001F58EFF0FFF413064204058E814533858A0027
S31580001F68EFF01FF84E85D285EFF09FE78145014552
S31580001F78EF005052171400001304446A14601309C2
S31580001F88F103137909FCAA8995E6146481E64E85DE
S31580001F98EFF05FE1CA84106C26859715000093855B
S31580001FA86548EFF0DFEBAA94E30399FE4A85EF00D4
S31580001FB80069F1BF1068971500009385A5464A8584
S31580001FC8EFF0FFE91464B304A900F9DEE9B78347A3
S31580001FD8050089CBAA87850703C707006DFF338568
S31580001FE8A74082800145828091CD834705008DC3B5
S31580001FF8B306B500AA8721A003C7070011C78507BE
S31580002008E39CD7FE2E858280B385A7402E85828065
S315800020188145CDBF05058347F5FF850503C7F5FFD0
S3158000202899C7E389E7FE1B850700199D82800145CC
S31580002038EDBFAA87850503C7F5FF8507A38FE7FE4A
S3158000204875FB828083470500130700026397E700C4
S31580002058050583470500E38DE7FE1B8757FD137744
S31580002068D70F15C783460500AA87014685CE014541
S3158000207885079B8506FD1317250083C607003A95B5
S3158000208806052E95F5F619C23305A040828083464B
S315800020981500938737FD13B6170093071500E1FAE5
S315800020A80145D5B701458280828001114AE017191A
S315800020B800001309295603260900986106EC931730
S315800020C80602E983BA979C4F22E826E499E7E260FC
S315800020D84264A2640269056182809304C7012E84E2
S315800020E81715000013050535A685EFF03FD41C604B
S315800020F817170000036707521A07BA978C4B1715EC
S31580002108000013052535EFF07FD21C6017170000F5
S31580002118036747501A07BA97CC4717150000130567
S31580002128E534EFF0BFD0832709000860426485272D
S315800021381397070269833A95E2600269A685A264C5
S315800021481CC5232C0500171700002325F74C71059D
S3158000215805616FF01FEE011126E4046522E84AE066
S3158000216880612A89971500009385C531268506ECF6
S31580002178EFF05FEA01E9033509019305C401EFF041
S315800021887FE91DC5971500009385C5302685EFF034
S315800021987FE80DCD97150000938545302685EFF0AD
S315800021A87FE721C9E2604264A26402690561828090
S315800021B817160000036606461A06329485471CCC15
S315800021C8E2604264A26402690561828083370900FD
S315800021D817160000036606441A062296426483355B
S315800021E80901E260A26402698863410605616F009D
S315800021F83013171600000366E6411A064A8581459C
S315800022083294EF00F01F48C4E2604264A264026917
S3158000221805618280732540F101258280938601823B
S315800022289C621B070504138687001385870413752C
S3158000223805FC329798E2233CF5FE828082801387DC
S3158000224801821C631D71A2E82A841385870486ECA3
S31580002258A6E4CAE04EFC52F80568137505FC930897
S3158000226888B4233CF5FEAE89C69732899714000058
S315800022789384443A130608B0814508E0368A1CE3FD
S3158000228823A00400EFF0DFC50860D285232035013E
S315800022982322250123240500232C05007105EFF050
S315800022A85FD993878182886397070000938707E0C1
S315800022B83EE497070000938747EA3EE82C00970795
S315800022C800009387C7DE22F402F03EECEF00A0718F
S315800022D8E660466488400669A664E279427A2561A2
S315800022E88280797106F422F026EC02E002E4F32477
S315800022F840F185476300F51063D3A70289476300D9
S31580002308F5128D476310F50E171500001305852005
S31580002318EFF0DFB1A2700274E2644561828079E1F0
S315800023281715000013058518EFF05FB097160000A3
S3158000233893864619130610029305B00E0A85EFF0A8
S315800023481FF02A84971600009386C6181306000283
S315800023589305B00E2800EFF09FEE635FA002A26897
S315800023681B88040081461386080118628526130691
S3158000237806045C43930547009BD7C701638C070B0C
S31580002388E3C5A6FE9A06C696986A930547009C41B9
S31580002398858BF5DF23200700E35E80F682671B06C0
S315800023A8F4FF02160192938607011A06938707059A
S315800023B83E968945B6879863938707040CC3E39C42
S315800023C8C7FE8C62138745001C43858BF5DF23A0E7
S315800023D8050093860604E396C6FEA2700274E2643C
S315800023E845618280854763DDA700A2700274E26436
S315800023F845618280171500001305C50EEFF01FA3EF
S31580002408971600009386060D130600029305B00EF4
S315800024182800EFF0DFE20144E343A0F4E5BD171599
S3158000242800001305A50DEFF07FA0A2700274E26488
S315800024384561828089471CC399BF1C698215819131
S31580002448BE958841012582801C6982158191BE9539
S3158000245890C182801C691B0EF6FF93763E0023A2EC
S31580002468070223A40702D8531388470213858702D5
S31580002478012713674700D8D3D8530127D98ED4D3D9
S3158000248841C6021E93870505135EAE01C1053E9EB1
S315800024980D43A14898619B86C8FF1B0FD3FF5C53E9
S315800024A893850504812793E787005CD30326080074
S315800024B81C5F9BD74700BD8BBB971701D18F8127A0
S315800024C82320F80003260800832E8703A12893FE7D
S315800024D8FE00BB96DE00D18E81262320D8001441CB
S315800024E87C439BD737009D8BBB976700DD8E812603
S315800024F814C11441784319231D8BBB17E701D58F67
S3158000250881271CC1E398C5F982804DCE83380501A1
S31580002518C1050526054515481B57254003B3050003
S3158000252839271B1727004697832E070083268303A0
S31580002538137E3500BB4F05031B1F3E009BD6460006
S315800025489B074F00BD8ABB96F600B3EEDE00812E50
S315800025582320D7011443032E830393850504137E12
S31580002568FE003B1EEE01B3E6C601812614C3BB6E90
S3158000257805039B972F00BB87F7019B874704C69760
S3158000258803AE07000327430405251B5737001D8B19
S315800025989B961E00BB86D6019B9616009B8E3600A0
S315800025A83B17D7013367EE00012798C39843032367
S315800025B8430413737300BB16D300D98E812694C344
S315800025C8E31CC5F482800CC1828008410125828083
S315800025D8B707006003A54710118982803707006016
S315800025E883274710918BEDDF8280A94737070060E4
S315800025F86300F50283274710918BEDDF01252320A1
S31580002608A7103707006083274710918BEDDF8280FC
S3158000261883274710918BEDDFA9472320F7103707CB
S31580002628006083274710918BEDDFB5472320F7108D
S315800026383707006083274710918BEDDF8280411131
S3158000264822E006E42A840345050019C50504EFF04F
S31580002658DFF9034504007DF9A260026441018280A6
S31580002668011122E826E406EC370700609307200A62
S315800026782326F710B70700808D272324F7109304A5
S315800026883005171400001304E4F01305500421A044
S31580002698268583441400EFF05FF50504F5F8E260BB
S315800026A84264A2640561828097170000938787F247
S315800026B81377F5003E97034707001181AA97A380F1
S315800026C8E50083C707002380F5008280797122F0B0
S315800026D826EC4EE452E006F44AE82A8A61449714C6
S315800026E80000938424EFE159BB578A0093F7F70FCC
S315800026F813F7F7009183A697269703C50700034922
S3158000270807006134EFF07FEE4A85EFF01FEEE31D98
S3158000271834FDA2700274E2644269A269026A456164
S315800027288280797122F026EC4EE452E006F44AE87B
S315800027382A8A13048003971400009384A4E9E15934
S31580002748B3578A0093F7F70F13F7F7009183A69785
S31580002758269703C50700034907006134EFF0FFE8B1
S315800027684A85EFF09FE8E31D34FDA2700274E264A7
S315800027784269A269026A456182806FF09FFA4111B7
S3158000278897170000938707E51377F500118106E40C
S3158000279822E03E97AA9703C5070003440700EFF097
S315800027A8DFE422850264A26041016FF01FE4854759
S315800027B83171821722F926F58907B704FF00370495
S315800027C801FF4AF14EED52E956E55AE1DEFCE2F8A0
S315800027D8E6F4EAF006FDEEECB2892A8CAE8A3689F2
S315800027E832EC3EF432F8014D9384F40F130404F06E
S315800027F8894C0D4A971B0000938BCBDB171B000077
S31580002808130B4BDC83270C001BD787009B9787000D
S31580002818E18F658F5D8F9B1707011B570701D98F3E
S315800028288127638C970763F9FC006387470B1147F9
S315800028386398E708110CF9B705476393E708631BA4
S315800028480D00638909008337090189C78335090221
S315800028584E8582978337090013054C002AF091C765
S3158000286883350902280882970275EFF04FF6719929
S315800028782105CA863008D6856295EFF05FF38337DF
S3158000288889012A8D81CB8335090228088297FD57CD
S315800028986307F5126A8C054DB5B763070D10110CE1
S315800028A8EA704A746285AA740A79EA694A6AAA6ADF
S315800028B80A6BE67B467CA67C067DE66D296182806E
S315800028C8E3100DFEE38E09FC83370901F1DB8335BE
S315800028D809024E858297E9B703278C0003264C00A8
S315800028E89305CC009B1787001B578700658FE18F60
S315800028F89B168600D98F1B5686001B970701E18E8B
S31580002908658E9BD70701D18E5D8F9B9D0601021729
S315800029189BD606010193B3E6DD0056979B8D06008C
S315800029283AFCEEC4AEE0638E09043A85DE853AE465
S31580002938EFF04FEE22670DE18326CC009B97860049
S315800029489BD68600E58EE18FD58F9B9607019BD710
S315800029580701D58F23A8F900DA853A85EFF08FEB42
S315800029680DE10327CC009B1787001B578700658FCF
S31580002978E18FD98F1B9707019BD70701D98F23AA88
S31580002988F9008D2D9BD7FD419BD7E701BB87B70102
S315800029989BD7274003378900833509028D278A0705
S315800029A808183E9C0297B9BDE38B09EE8337090167
S315800029B8E38707EE833509024E858297CDB5630294
S315800029C8AC03E28737070004910723AEE7FEE31DD1
S315800029D8FDFEB3078D41F117F19B91073E9C054D8E
S315800029E815B5054D05B518413706FF00370801FFAF
S315800029F89B5787001306F60F1B178700130808F0E6
S31580002A0833770701F18FD98F1B9707019BD707016A
S31580002A18D98F37070ED081271307D7EE6394E7023D
S31580002A28184DC5469B1787001B578700718FB3F7CC
S31580002A380701D98F1B9707019BD70701D98F812754
S31580002A4863F3F60082805C4583288500AE861B97F3
S31580002A5887009BD587009B9788009BD8880033770B
S31580002A680701F18D33F8070133F6C800B367B7005D
S31580002A783366C8009B9507011B1706019BD707017C
S31580002A881B560601598ECD8F13170602939507029A
S31580002A9881910193AA9501463A956FF05FD11841C5
S31580002AA8370601FFB706FF009B178700130606F057
S31580002AB81B5787009386F60F758FF18FD98F1B97D3
S31580002AC807019BD70701D98F37070ED081271307B0
S31580002AD8D7EE6394E7040C4D454801479B978500DC
S31580002AE89BD58500F58DF18FCD8F9B9507019BD75B
S31580002AF80701CD8F81276360F8025C411B978700A9
S31580002B089BD78700798EFD8ED18E1B9706019BD623
S31580002B180601558F01273A85828001473A8582804A
S31580002B281C49233006006353F0061B83F7FF93186E
S31580002B38030293D8080285088A08B70E01FF370E64
S31580002B48FF00AE982E888147938E0EF0130EFE0FE7
S31580002B5811080327C8FF939607029B1787001B5700
S31580002B6887003377C701B3F7D701D98F1B9707013A
S31580002B789BD70701D98F82178193B697E31A18FDD9
S31580002B8805030A03338565001CE282802E858280D0
S31580002B985C49233006006353F0061B83F7FF9318BE
S31580002BA8030293D8080285088A08B70E01FF370EF4
S31580002BB8FF00AE982E888147938E0EF0130EFE0F77
S31580002BC811080327C8FF939607029B1787001B5790
S31580002BD887003377C701B3F7D701D98F1B970701CA
S31580002BE89BD70701D98F82178193B697E31A18FD69
S31580002BF805030A03338565001CE282802E85828060
S31580002C081C698215F981AE979843370501FF13052C
S31580002C1805F09B178700E98F3705FF001305F50F29
S31580002C281B578700698FD98F1B9507019BD707018B
S31580002C385D8D01258280797122F01C4D00694EE4F4
S31580002C4806F426EC4AE8B309F400635CF0022E89A0
S31580002C58814419A82285EFF08FB705052A94B38792
S31580002C6889408524635FF000CA852285EFF08FBA94
S31580002C7875F1A270027426854269E264A26945618B
S31580002C888280A2700274FD5426854269E264A26934
S30980002C98456182800A
S31580002C9C41110547814613060020C14517050000E2
S31580002CAC1305856306E422E0EFF00F980947854605
S31580002CBC0146930500204145EFE04FED2A84170528
S31580002CCC00001305E566EFF02F9681451705000089
S31580002CDC13050569EFF04F95C145170500001305DF
S31580002CECA569EFF06F94A285170500001305456A58
S31580002CFCEFF08F93170500001305056AEFF0CF925E
S31580002D0C171600001306468A85451705000013051D
S31580002D1C256AEFF06F9193050020170500001305C7
S31580002D2CA569EFF06F90170500001305E569EFF0C4
S31580002D3CAF8FA26002640145410182804111170563
S31580002D4C00001305656C06E4EFF03F8FA2607D559D
S30980002D5C41018280A9
S31580002D6001000000010000000200000001000000D8
S31580002D7004000000020000000300000003000000C1
S31580002D800400000042EDFFFFE0EEFFFFC8EEFFFF0C
S31580002D90E0EEFFFFE0EEFFFFE0EEFFFFE0EEFFFF7D
S31580002DA0D2EEFFFFE0EEFFFFE0EEFFFF40EDFFFF1C
S31580002DB0CCEDFFFFE0EEFFFF40EDFFFFE4EDFFFF10
S31580002DC0E4EDFFFFE4EDFFFFE4EDFFFFE4EDFFFF41
S31580002DD0E4EDFFFFE4EDFFFFE4EDFFFFE4EDFFFF31
S31580002DE0E0EEFFFFE0EEFFFFE0EEFFFFE0EEFFFF2D
S31580002DF0E0EEFFFFE0EEFFFFE0EEFFFFE0EEFFFF1D
S31580002E00E0EEFFFFE0EEFFFFE0EEFFFFE0EEFFFF0C
S31580002E10E0EEFFFFE0EEFFFFE0EEFFFFE0EEFFFFFC
S31580002E20E0EEFFFFE0EEFFFFE0EEFFFFE0EEFFFFEC
S31580002E30E0EEFFFFE0EEFFFFE0EEFFFFE0EEFFFFDC
S31580002E40E0EEFFFFE0EEFFFFE0EEFFFFE0EEFFFFCC
S31580002E50E0EEFFFFE0EEFFFFE0EEFFFFE0EEFFFFBC
S31580002E60E0EEFFFFE0EEFFFFE0EEFFFFE0EEFFFFAC
S31580002E70E0EEFFFFE0EEFFFFE0EEFFFFE0EEFFFF9C
S31580002E80E0EEFFFF2AEEFFFFACEEFFFFE0EEFFFF76
S31580002E90E0EEFFFFE0EEFFFFE0EEFFFFE0EEFFFF7C
S31580002EA0E0EEFFFFE0EEFFFF84EEFFFFE0EEFFFFC8
S31580002EB0E0EEFFFF4AEDFFFF8EEEFFFFE0EEFFFF45
S31580002EC0E0EEFFFF36EEFFFFE0EEFFFF80EEFFFF56
S31580002ED0E0EEFFFFE0EEFFFFE0EDFFFF0000000009
S31580002EE0403500800000000058350080000000005A
S31580002EF070350080000000008035008000000000F2
S30D80002F00000000000000000043
S31580002F0856616C69646174696E6720627566666508
S31580002F18722040203078256C782028426174636856
S31580002F283A2025642C20546F6B656E733A2025648D
S31580002F382C204F66667365743A202564292E2E2EBA
S31580002F480A0000000000000020204552524F5220FF
S31580002F585B25642C2025645D3A204578706563740A
S31580002F686564203078256C6C782028256C6C7529EA
S31580002F782C20476F74203078256C6C782028256C37
S31580002F886C75290A00000000202056616C6964610E
S31580002F9874696F6E205041535345440A00000000FF
S31580002FA8202056616C69646174696F6E2046414958
S31580002FB84C45442077697468202564206572726F51
S31580002FC872730A00000000004572726F723A204FD1
S31580002FD87574206F66206D656D6F727920696E20B5
S31580002FE862616E6B2031210A00000000000000003B
S31580002FF84572726F723A204F7574206F66206D65C0
S315800030086D6F727920696E2062616E6B2032210A3B
S3158000301800000000000000004572726F723A204F6F
S315800030287574206F66206D656D6F727920696E2064
S3158000303862616E6B2033210A0000000000000000E8
S315800030484572726F723A204F7574206F66206D656F
S315800030586D6F727920696E2062616E6B2034210AE9
S31580003068000000000000000053657474696E6720D4
S31580003078757020256420646576696365207374722B
S31580003088756374757265732E2E2E0A000000000013
S315800030984465766963652073747275637475726541
S315800030A820736574757020636F6D706C6574652E9A
S315800030B80A000000000000004572726F723A2049CB
S315800030C86E76616C6964206275666665722073695E
S315800030D87A652063616C63756C6174696F6E20288C
S315800030E873697A653D2564292E20436865636B205C
S315800030F842415443482F544F4B454E532E0A0000A5
S315800031084572726F723A204661696C656420746F85
S3158000311820616C6C6F636174652064617461206280
S31580003128756666657220666F722064657669636502
S31580003138202564210A0000004572726F723A204683
S3158000314861696C656420746F20616C6C6F636174EF
S3158000315865206D656D6F727920666F722070616704
S3158000316865207461626C6520706F696E7465722003
S315800031786172726179210A004572726F723A2046CD
S3158000318861696C656420746F20616C6C6F636174AF
S31580003198652070616765207461626C6520666F72F0
S315800031A8206465766963652025640A00000000004E
S315800031B8436F6E6669677572696E672025642070CD
S315800031C8617274696369706174696E672064657613
S315800031D8696365732E2E2E0A000000000000000029
S315800031E85374617274696E6720616363656C657216
S315800031F861746F72732E2E2E0A0000000000000084
S31580003208202056616C69646174696E67206465768E
S315800032186963652025642028485720496E64657847
S31580003228202564290A00000056616C696461746906
S315800032386F6E20636F6D706C6574652E20546F7425
S31580003248616C204572726F727320666F7220746823
S3158000325869732072756E3A2025640A0000000000A2
S31580003268536F757263652025642028485720496EF8
S3158000327864657820256429207472616E7366657228
S315800032883A20504153530A00536F7572636520255F
S31580003298642028485720496E64657820256429204B
S315800032A87472616E736665723A204641494C0A00AB
S315800032B85374617274696E672076616C696461742F
S315800032C8696F6E20666F72202564206465766963EF
S315800032D865732E2E2E0A00000A3D3D3D3D3D3D205C
S315800032E852756E6E696E6720746573743A204241B2
S315800032F85443483D25642C20544F4B454E533D2519
S31580003308642C204D434153545F5041434B45543DB3
S3158000331825642C204E554D5F4D554C544943415399
S31580003328543D2564203D3D3D3D3D3D0A000000005D
S315800033380A2D2D2D205465737420526573756C740F
S31580003348732053756D6D61727920284379636C6536
S3158000335820436F756E747329202D2D2D0A00000069
S315800033684D434153545F5041434B4554203D20259E
S31580003378643A0A0000000000202042415443482055
S315800033883D20252D33643A205B00000000000000B4
S31580003398256C6C64000000005D20284E554D5F4DFD
S315800033A8554C544943415354203D207B000000002E
S315800033B825642573000000007D2C20544F4B454E14
S315800033C8533D2564290A00000A2D2D2D2054657346
S315800033D8742053756974652046696E697368656477
S315800033E8202D2D2D0A000000286E756C6C29000092
S315800033F86D6379636C6500006D696E73747265744C
S315800034080000000000000000496D706C656D656EF7
S3158000341874206D61696E28292C20666F6F210A00D9
S315800034282573203D2025640A000000000000000066
S315800034385B70726F62655D2025732E2564207265C8
S3158000344867697374657265640A000000000000008D
S315800034580909416464726573732020203A203078A4
S31580003468253038780A0000000909496E7465727239
S31580003478757074203A2025640A0000000000000058
S31580003488636F6D70617469626C650000000000008E
S315800034987265670000000000696E746572727570E7
S315800034A87473000000000000092D3E204E6F6E2DBB
S315800034B8636F686572656E7420444D410A0000002A
S315800034C8736C642C6C6C635F636163686500000071
S315800034D8736C642C6C325F636163686500000000FE
S315800034E8092D3E204C4C432D636F686572656E745A
S315800034F820444D410A000000092D3E20436F68652F
S3158000350872656E7420444D410A0000000000000078
S31580003518092D3E2046756C6C792D636F68657265DA
S315800035286E74206361636865206163636573730A7B
S3158000353800000000000000006E6F6E2D636F6865E6
S3158000354872656E7420444D41000000000000000042
S315800035584C4C432D636F686572656E7420444D418B
S315800035680000000000000000636F686572656E7475
S315800035782D444D410000000066756C6C792D636F93
S31580003588686572656E742061636365737300000095
S315800035984553502D417269616E6520626F6F742044
S315800035A86C6F616465720A0A000000000000000002
S315800035B823616464726573732D63656C6C73000034
S315800035C82373697A652D63656C6C7300000000004F
S315800035D830313233343536373839414243444546BB
S315800035E8000000B000000000000000A000000000FD
S315800035F80000009000000000000000880000000025
S31580003608000010A000000000000401000000000077
S705800000007A
